:020000040000FA
:10000000E80A002095010000314C0000D9320000C0
:100010002D4C0000DD0B0000195B0000AF0100005B
:10002000AF010000AF010000AF0100000D50000063
:10003000130C0000AF010000314D0000855200009C
:10004000AF010000AF010000AF010000AF010000F0
:10005000AF010000AF010000AF010000AF010000E0
:10006000AF010000AF010000AF010000AF010000D0
:10007000AF010000AF010000AF010000AF010000C0
:10008000AF010000AF010000AF010000AF010000B0
:10009000AF010000AF010000AF010000AF010000A0
:1000A000AF010000AF010000AF0100008955000062
:1000B000AF010000AF010000AF010000AF01000080
:1000C000F9520000AF010000AF010000AF010000D5
:1000D000AF010000AF010000AF010000AF01000060
:1000E000AF010000AF01000000F002F800F042F89C
:1000F0000AA090E8000C82448344AAF10107DA4583
:1001000001D100F037F8AFF2090EBAE80F0013F092
:10011000010F18BFFB1A43F001031847D46A00000F
:10012000F46A0000103A24BF78C878C1FAD85207A0
:1001300024BF30C830C144BF04680C607047000061
:100140000023002400250026103A28BF78C1FBD8E0
:10015000520728BF30C148BF0B607047642900F0C8
:10016000A580732900F07381002070471FB51FBD63
:1001700010B510BD00F09EF91146FFF7F7FF05F02E
:1001800035FD00F0BCF903B4FFF7F2FF03BC00F04B
:10019000C3F900000A4880470A480047FEE7FEE727
:1001A000FEE7FEE7FEE7FEE7FEE7FEE7FEE7FEE727
:1001B0007047000004480549054A064B7047000097
:1001C00087520000E9000000E8050020E80A00204E
:1001D000E8060020E80A00200FB4044910B503AA7D
:1001E000029800F039F910BC5DF814FB04000020FF
:1001F0002DE9F0410E460446002020622046E168C9
:10020000884730B3252805D0D4E901219047206ADA
:10021000401CF2E7E168204600278847050018D017
:10022000A5F14100192802D820354FF40067324665
:10023000294620462760FFF791FF40B1012804D0EE
:10024000F61D26F007060836D8E7361DD6E72846FD
:10025000DAE7206ABDE8F08170B50C460546012A50
:1002600005D02878800600D5EA69002302E0012342
:1002700005E05B1C934202D2E05C0028F9D1A8693A
:10028000E618C01AA861286A184428622846AFF305
:10029000008004E0D5E9012114F8010B9047B44235
:1002A000F8D32846AFF3008070BD00002DE9F0417F
:1002B0000646002410687529314616A510D0AFF304
:1002C0000080002802DA404213A507E031688A075F
:1002D00001D512A502E0490704D511A5012401E0CA
:1002E000AFF3008000210A2206F1240709E0B0FBE9
:1002F000F2FCB0FBF2F302FB1C00303078541846DD
:10030000491C0028F3D123462A463046BDE8F04177
:1003100000F032B8000000002D0000002B000000AB
:10032000200000004FF0000200B5134694469646A8
:10033000203922BFA0E80C50A0E80C50B1F12001F8
:10034000BFF4F7AF090728BFA0E80C5048BF0CC0A6
:100350005DF804EB890028BF40F8042B08BF704704
:1003600048BF20F8022B11F0804F18BF00F8012B76
:1003700070477047704770472DE9F0470D46994622
:100380009246044600F124080168880604D5E06915
:1003900021F01001216000E00120A84201DD471B8F
:1003A00000E00027A1697A1902EB0900081AA06190
:1003B0002078C00602D42046AFF30080002608E073
:1003C000D4E901211AF806009047206A401C761CE7
:1003D00020624E45F4DB2078C0060AD52046AFF3F4
:1003E000008006E0D4E9012130209047206A401CBB
:1003F0002062381EA7F10107F4DC07E0D4E90121EF
:1004000018F805009047206A401C2062281EA5F1BC
:100410000105F3DC2046AFF300802078000602D50A
:100420000220BDE8F0870120FBE710B5436913B156
:10043000AFF3008001E0FFF70FFF012010BD12783D
:1004400000F124010A7000224A700122EDE71168D0
:100450004FF0FF32E9E70000074B70B50D467B44D3
:1004600000F011F80446284600F020F810B14FF0D3
:10047000FF3070BD204670BD6B57000001694A1CFB
:1004800002610878704700B58FB0CDE901310021D5
:10049000059105497944CDE9031011466846FFF7F7
:1004A000A7FE0FB000BD0000E5FFFFFF007B00F0DE
:1004B00080007047754600F02BF8AE46050069468F
:1004C000534620F00700854618B020B5FFF772FEAE
:1004D000BDE820404FF000064FF000074FF0000845
:1004E0004FF0000B21F00701AC46ACE8C009ACE8C6
:1004F000C009ACE8C009ACE8C0098D46704710B52A
:100500000446AFF300802046BDE81040FFF73BBE35
:10051000004870478805002001491820ABBEFEE75F
:1005200026000200704700002DE9F04707460C4600
:10053000154699460026B0464E48874200D104E051
:1005400040F22D114C4805F0E9FA8CB3012C2FD064
:10055000022C2DD0032C2BD0042C29D0052C27D0F5
:10056000062C25D0072C23D0082C21D0092C1FD0F5
:100570000A2C1DD00B2C1BD00C2C19D00D2C17D0F5
:100580000E2C15D00F2C13D0102C11D0112C0FD0F5
:10059000122C0DD0132C0BD0142C09D0152C07D0F5
:1005A000162C05D0172C03D0182C01D0192C00D1F3
:1005B00004E04FF49771304805F0B0FA0C2D0DD0DF
:1005C000102D0BD0142D09D0182D07D01C2D05D0BF
:1005D000202D03D0242D01D0282D00D104E040F29D
:1005E0002F11254805F09AFAB9F1010F02D0B9F19F
:1005F000000F00D104E04FF498711F4805F08EFA07
:100600000320C0EBA500C6B21A4840300078012193
:10061000B14088431749403108700846007809FA0C
:1006200006F10843134940310870042E0EDAD7F85A
:100630003880F1001F20884028EA0008F10004FA01
:1006400001F040EA0808C7F8388011E0082E0FDAF8
:10065000301FC6B2D7F83C80F1001F20884028EA3E
:100660000008F10004FA01F040EA0808C7F83C80ED
:10067000BDE8F08700280240A46B000070B5044676
:100680000D460C48844200D104E040F22F210A4874
:1006900005F044FA4FF6F870284008B905B104E0B7
:1006A0004FF40C71044805F039FA606C40EA0540DB
:1006B000606470BD00280240A46B00001CB50121DD
:1006C000042004F037FB0C20009000208DF804007B
:1006D0008DF8050001208DF8060000208DF8070038
:1006E0006946044800F0E8FE01220C21014800F0B0
:1006F000A1FF1CBD800A044070B505460C460026CB
:100700001148854200D104E040F2D5110F4805F0B0
:1007100005FA0C2C0DD0102C0BD0142C09D0182C51
:1007200007D01C2C05D0202C03D0242C01D0282C41
:1007300000D104E040F2D711044805F0EFF9285940
:1007400086B2304670BD000000280240A46B000055
:1007500070B505460C460E48854200D104E040F2D3
:1007600013210C4805F0DAF9042C03D0022C01D037
:10077000012C00D104E04FF40571064805F0CEF9D4
:10078000686C204008B1012600E00026304670BDAC
:1007900000280240A46B00002DE9F04105460C46FC
:1007A0004FF00008002600279E48854200D103E054
:1007B00081219D4805F0B2F9607810B16078012878
:1007C00000D103E08221984805F0A8F9E07848B309
:1007D000E078012826D0E078022823D0E0780428A9
:1007E00020D0E07808281DD0E07810281AD0E078D2
:1007F000182817D0E078212814D0E078222811D0CA
:10080000E07829280ED0E0782A280BD0E07831282B
:1008100008D0E078322805D0E078392802D0E07896
:100820003A2800D103E083217F4805F077F9A078CA
:1008300028B1A078012802D0A078022800D103E0D6
:100840008421794805F06AF9207828B120780128B8
:1008500002D02078022800D103E08521724805F0FB
:100860005DF9A06818B1A068082800D803E08621C7
:100870006D4805F053F9207960B32079012829D01B
:100880002079022826D02079032823D02079042833
:1008900020D0207905281DD0207906281AD020796B
:1008A000072817D02079082814D02079092811D0DA
:1008B00020790A280ED020790B280BD020790C281B
:1008C00008D020790D2805D020790E2802D0207973
:1008D0000F2800D103E08721534805F01FF9607B02
:1008E000A0B1607B012811D0607B02280ED0607B14
:1008F00003280BD0607B042808D0607B052805D036
:10090000607B062802D0607B072800D103E08821A5
:10091000454805F003F9207B60B3207B012829D0EE
:10092000207B022826D0207B032823D0207B04288C
:1009300020D0207B05281DD0207B06281AD0207BC4
:10094000072817D0207B082814D0207B092811D035
:10095000207B0A280ED0207B0B280BD0207B0C2874
:1009600008D0207B0D2805D0207B0E2802D0207BCC
:100970000F2800D103E089212B4805F0CFF8286823
:1009800086B26F6847F63E60864320784000617803
:1009900040EAC100A17840EA0110E17840EA412034
:1009A000304386B22E60214807402179A068401E5E
:1009B00041EA0010217B40EA0120617B40EA0140CE
:1009C0000743207801282AD120690C2814D02069F7
:1009D000102811D0206914280ED0206918280BD0B7
:1009E00020691C2808D02069202805D020692428E7
:1009F00002D02069282800D103E09C210A4805F094
:100A00008DF8208A0321C1EB900000F0FF08287ABE
:100A100020F007002872287A40EA080028726F60E8
:100A2000BDE8F08100280240A46B000080F0F8FFD0
:100A300010B5FFF743FE00F001F810BD00B585B01A
:100A4000684600F071F80121C80204F0DBF90822C1
:100A50000C21184800F0EEFD00208DF80000022067
:100A6000029008208DF8040000208DF802008DF817
:100A700001000E208DF80C000C20049000208DF851
:100A8000030002208DF80D0069460B48FFF784FE35
:100A900001230C2216210848FFF746FD01231022EE
:100AA00017210548FFF740FD0121034800F006F833
:100AB00005B000BD800A04400028024070B504461D
:100AC0000D460D48844200D103E0B5210B4805F0E6
:100AD00025F8012D00D005B903E0B621074805F03F
:100AE0001DF825B1206840F40040206003E0206834
:100AF00020F40040206070BD00280240A46B00007C
:100B000010B504460648844200D103E0CC210548D4
:100B100005F004F8206840F00100206010BD0000DE
:100B200000280240A46B000000214170C170817058
:100B300001700C210161012181600021017141736B
:100B400001210173704700001CB50121042004F04D
:100B5000F1F84FF40070009001208DF8040000209F
:100B60008DF805008DF806008DF8070069460748E6
:100B700000F0A2FC01225102044800F05BFD4FF49A
:100B80000071024800F068FE1CBD0000000A04402D
:100B90000020014988717047DC00002010B54FF437
:100BA0000071044800F058FE012003490871042038
:100BB000C87110BD000A0440DC0000200120034978
:100BC00048710A2008720420C8707047DC000020B9
:100BD0000120014988717047DC00002000BFFEE75A
:100BE00010B50146B1F8680008B9002010BDB1F891
:100BF00064000A5C31F8640F401C642390FBF3F43A
:100C000003FB140008808888401E888064391046E1
:100C1000ECE770472DE9F0470446894690461F46A9
:100C200000260025002C01DA012564420A2C01DA95
:100C3000012611E0642C01DA02260DE0B4F57A7F7A
:100C400001DA032608E042F21070844201DA042639
:100C500002E042F20F740426B9F1010F76D10021AF
:100C6000012002F0E9FD012D03D10121032003F051
:100C700061F8B8F1050F77D2DFE808F003152740D7
:100C80005900012F04D10121062003F053F809E097
:100C900025B90121092003F04DF803E001210620C8
:100CA00003F048F861E0012F04D10121082003F08E
:100CB00041F809E025B90121042003F03BF803E0E5
:100CC0000121082003F036F84FE0012F04D1012163
:100CD000082003F02FF810E05DB90121282003F06F
:100CE00029F80121052003F025F8032E05DA032653
:100CF00003E00121082003F01DF836E0012F04D1A4
:100D00000121082003F016F810E05DB90121282028
:100D100003F010F80121072003F00CF8032E05DA88
:100D2000032603E00121082003F004F81DE0012F51
:100D30000ED10121072002F0FDFFA4B101212820DE
:100D400002F0F8FF032E0EDA03260CE058E00BE069
:100D50000121282002F0EEFF0121072002F0EAFF26
:100D6000032E00DA032600E000BF00BF012E38D0BA
:100D7000022E26D0032E13D0042E3FD142F2107043
:100D800094FBF0F100FB11404FF47A7190FBF1F00D
:100D9000704911F800A00121504602F04BFE00BF3F
:100DA0004FF47A7094FBF0F100FB1140642190FB4A
:100DB000F1F0684911F800A00221504602F03AFE15
:100DC00000BF642094FBF0F100FB11400A2190FB6E
:100DD000F1F0604911F800A00321504602F02AFE0C
:100DE00000BF0A2094FBF0F100FB1140594911F8B3
:100DF00000A00421504602F01DFE00E000BFA6E066
:100E0000B9F1020FFBD10021022002F015FD012DE6
:100E100003D10121272002F08DFFB8F1050F4AD23E
:100E2000DFE808F0030E192B3D0025B901210F2042
:100E300002F080FF03E001210C2002F07BFF3BE089
:100E400025B901210A2002F075FF03E001210E20DF
:100E500002F070FF30E05DB901212A2002F06AFF44
:100E600001210B2002F066FF032E05DA032603E0C2
:100E700001210E2002F05EFF1EE05DB901212A2053
:100E800002F058FF01210D2002F054FF032E05DA75
:100E9000032603E001210E2002F04CFF0CE00121AB
:100EA0002A2002F047FF01210D2002F043FF032E0C
:100EB00000DA032600E000BF00BF012E38D0022E6A
:100EC00026D0032E13D0042E3FD142F2107094FB93
:100ED000F0F100FB11404FF47A7190FBF1F01D49E5
:100EE00011F800A00521504602F0A4FD00BF4FF408
:100EF0007A7094FBF0F100FB1140642190FBF1F05B
:100F0000144911F800A00621504602F093FD00BFDD
:100F1000642094FBF0F100FB11400A2190FBF1F0FA
:100F20000C4911F800A00721504602F083FD00BFD4
:100F30000A2094FBF0F100FB1140064911F800A0D3
:100F40000821504602F076FD00E000BF00BFBDE87A
:100F5000F08700005200002008B56B4602220021F5
:100F6000084600F0DDF99DF80000552810D19DF8E5
:100F70000100AA280CD1174B04220221002000F006
:100F8000CFF9154B14220621002000F0C9F920E00A
:100F90000420104908700020487088700B46042215
:100FA000022100F01BF814210B48FFF7BBF90A4B94
:100FB00014220621002000F011F855208DF80000C1
:100FC000AA208DF801006B4602220021084600F09D
:100FD00005F808BD17000020B40000202DE9F05FDF
:100FE00080460E4615461F464FF00C094FF0000A8A
:100FF0004FF0000B284B4FF480620021404600F078
:101000008FF9002406E030192349085C00B103E0A1
:10101000601C84B2AC42F6DB00BFAC4233DA00F0B5
:101020003FFA834672B602F0F3F9002004F00AF8A2
:10103000002000F087F9404600F0B0F8814600F04B
:10104000DBF802F0E5F9BBF1010F02D1012003F05A
:10105000F9FF62B6B9F10C0F02D00120BDE8F09F94
:10106000002405E0385D31190B4A5054601C84B2ED
:10107000AC42F7DB4FF48063074A0021404600F0A2
:101080000DF8824606E02B463A463146404600F0CF
:1010900005F882465046E1E7680100202DE9F04757
:1010A00006460F4614461D464FF00C084FF0000947
:1010B00000F0F6F9814672B602F0AAF9002003F0BA
:1010C000C1FF012000F03EF923462A46394630464A
:1010D00000F0DEF8804600F08FF802F099F9B9F1DF
:1010E000010F02D1012003F0ADFF62B6B8F10C0F81
:1010F00002D10020BDE8F0870120FBE710B50246D1
:10110000B2F86800642801D1002010BDB2F8660072
:10111000115432F8660F401C642390FBF3F403FB78
:10112000140010805088401C5080663A0120ECE783
:10113000054908680968054A1143034A11600449D2
:101140000143116070470000004804400008A55AA0
:101150000000A55A10B5044624F0FB0008B904B1FC
:1011600004E04FF4C871054804F0D8FC0448006856
:1011700040EA04400249086010BD0000586B0000BE
:101180000C480440002003490860091D086002491A
:1011900008607047204804400005894270B5044645
:1011A0000C25052C00DC04E04FF433710F4804F0EB
:1011B000B5FC00F063F905460C2D12D14FF0FF315C
:1011C000084600F025F90A48204340F48070094998
:1011D000086000F053F90546002006490860FFF753
:1011E000D1FFFFF7A5FF284670BD0000586B000037
:1011F0000000B44B104804400120014908607047CA
:10120000380289422DE9F04104460D460C261A4861
:10121000076807F00700194908431749086018488C
:10122000844203D31748844200D804E040F22B31B3
:10123000154804F073FC00F021F906460C2E12D17B
:101240004FF0FF31084600F0E3F810480A4910312A
:101250000860258000F012F906460020064910318A
:101260000860FFF78FFF0548384303490860FFF720
:101270005FFF3046BDE8F081004804400000A55AF9
:101280000000FF0FFF2FFF0F586B000000094BB449
:101290002DE9F04704460E4615461F464FF00C0850
:1012A0004FF000094FF0000A042D03D305F00300AE
:1012B00000B904E040F28A51174804F02FFCFB20EB
:1012C000FFF748FF154800EB842000EB060A0EE00C
:1012D00037F809105046FFF795FF8046B8F10C0F1C
:1012E00004D10AF1020A09F1020900E001E0A9456E
:1012F000EED300BF094800EB842000EB060AB8F1EA
:101300000C0F05D13A462946504600F08DF880462C
:101310004046BDE8F0870000586B00000000FF0F5A
:1013200030B50446002007E0054D05EB84250D444B
:101330002D5C03F8015B401C9042F5D330BD0000EA
:101340000000FF0F1049096811B901210E4A116010
:101350000D490C39096819B901210B4A0C3A116081
:101360000949091F096869B10849094A116018B992
:101370004FF0C331116005E0012803D14FF0B431C3
:10138000034A1160704700003C0289425713DF9BFB
:101390000848044010B50C241C48006800F40040C4
:1013A000B0F5004F01D101242DE01848006800F08D
:1013B000100008B1052426E01448006800F0080079
:1013C00008B106241FE01148006800F0200008B1B1
:1013D000042418E00D48006800F0400008B1032420
:1013E00011E00A48006800F0800008B102240AE019
:1013F0000648006800F0020008B1072403E00C244E
:101400000120FFF7A7FE204610BD00000C48044055
:10141000034A1060121D11600122024B1A607047CE
:1014200020480440000589422DE9F04706460C4655
:1014300017464FF00C090025A846042C03D304F0EE
:10144000030000B904E040F2B2410B4804F066FB2F
:10145000B0460CE098F80000795D884204D04FF067
:101460000B094846BDE8F08708F101086D1CA5424C
:10147000F0D34846F6E70000586B000008B50C2092
:101480000090FFF787FF009002E0FFF783FF0090D6
:101490009DF800000128F8D09DF8000008BD00006C
:1014A000002004490968C1F3C02109B1012000E00E
:1014B00000207047003804402DE9F04104460D46F5
:1014C00000260027B046594884420FD057482030A4
:1014D00084420BD055484030844207D05348603096
:1014E000844203D051488030844200D103E06A2115
:1014F0004F4804F013FB002010B9286800B103E046
:101500006B214B4804F00AFB287910B12879012897
:1015100000D103E06C21464804F000FBE87928B1D3
:10152000E879012802D0E879022800D103E06D2192
:101530003F4804F0F3FA72E0012000FA06F7286849
:1015400000EA0708B84569D120880121B1408843E5
:10155000208021882879B040014321802879012802
:101560003FD1687940B16879012805D068790228AF
:1015700002D06879032800D103E07E212C4804F0D2
:10158000CDFAA4F50070C068720001219140884333
:10159000A4F50071C860687971008840A4F50071F5
:1015A000C9680843A4F50071C860A87910B1A8798A
:1015B000012800D103E085211D4804F0AFFAA4F50D
:1015C000007000890121B1408843A4F500710881B1
:1015D00008460089A979B14089B20843A4F5007191
:1015E0000881A4F5007000697200012191408843D0
:1015F000A4F500710861084600697200022191405B
:101600008843A4F500710861E87971008840A4F569
:10161000007109690843A4F500710861761C286807
:10162000F040002888D1BDE8F0810000000A0440A5
:10163000F86800002DE9F04105460F4614460026E3
:10164000B046464885420FD04448203085420BD0F2
:1016500042484030854207D040486030854203D040
:101660003E488030854200D104E04FF4F2713C489E
:1016700004F054FA002008B907B104E040F2E51183
:10168000374804F04BFA012C26D0022C24D023D06A
:1016900022D021D020D01FD0032C1DD01CD0042C50
:1016A0001AD019D0052C17D016D015D014D013D0BD
:1016B00012D011D010D0062C0ED00DD00CD00BD0E3
:1016C000072C09D008D007D006D0082C04D003D0AE
:1016D000092C01D00A2C00D104E04FF4F37120480A
:1016E00004F01CFA34E00120B0401FFA80F807EA49
:1016F000080040452AD1072E15DDA5F50070C06908
:101700007107CA0E0F2191408843A5F50071C86189
:101710000846C0697107C90E04FA01F10843A5F52E
:101720000071C86112E0A5F500708069B2000F2158
:1017300091408843A5F50071886108468069B10031
:1017400004FA01F10843A5F500718861701CC6B266
:1017500047FA06F00028C6D1BDE8F081000A04402F
:10176000F868000010B504460D4884420FD00C48BC
:10177000203084420BD00A484030844207D00848C9
:101780006030844203D006488030844200D104E0B7
:101790004FF48B71034804F0C1F9A08810BD00001C
:1017A000000A0440F868000070B505460C460026A3
:1017B000274885420FD02648203085420BD0244848
:1017C0004030854207D022486030854203D020480F
:1017D0008030854200D104E04FF480711D4804F050
:1017E0009DF9012C25D0022C23D0042C21D0082CCB
:1017F0001FD0102C1DD0202C1BD0402C19D0802C99
:1018000017D0B4F5807F14D0B4F5007F11D0B4F5B3
:10181000806F0ED0B4F5006F0BD0B4F5805F08D0A8
:10182000B4F5005F05D0B4F5804F02D0B4F5004F99
:1018300000D104E040F20111064804F06FF9A888D5
:10184000204008B1012600E00026304670BD0000AF
:10185000000A0440F868000070B504460D461248BE
:1018600084420FD01048203084420BD00E484030C4
:10187000844207D00C486030844203D00A4880304C
:10188000844200D104E040F25F11084804F046F9B8
:10189000002008B905B104E04FF4B071034804F02A
:1018A0003DF92804E06070BD000A0440F8680000BB
:1018B00070B504460D46124884420FD010482030BF
:1018C00084420BD00E484030844207D00C48603030
:1018D000844203D00A488030844200D104E040F2C0
:1018E0004F11084804F01AF9002008B905B104E0C6
:1018F0004FF4A871034804F011F9E56070BD0000D1
:10190000000A0440F86800000146B1F8680070471A
:10191000F8B507460026684601F0E0FC012854D1DE
:1019200000203549087001F001FD34480078022894
:1019300045DD9DF802009DF8011040EA01209DF868
:10194000001040EA01442E48844202DD6FF07F40DF
:10195000241A6CB92B480078032803DD01202A499A
:101960004874F8BD27480078401C2649087002E0FA
:101970000020244908700020234948742348017836
:101980000078401C214A1070214840F82140104640
:10199000007804282EDB002011460870002505E0A1
:1019A0001B4850F825000644681CC5B2042DF7DB1F
:1019B0003046F11706EB9171891039601AE00F4833
:1019C0000078401C0D49087014E000200B49087095
:1019D00001F0DEFC084800780A2806DD01200A49EB
:1019E000487400200949087004E003480078401C4E
:1019F0000149087000BFB4E77500002076000020A0
:101A0000BFBDF00077000020C80000207400002057
:101A10007805002010B504210B48FFF71DFF00F0EA
:101A200093F808210848FFF717FF022004F0A8F8F0
:101A300004210548FFF73CFF022004F0A1F804212F
:101A40000148FFF709FF10BD200A04401CB5012121
:101A5000042003F06FF90C20009001208DF80400A1
:101A600000208DF8050001208DF806008DF8070094
:101A700069460848FFF720FD01220C210548FFF7C1
:101A8000D9FD04210348FFF713FF08210148FFF7A0
:101A90000FFF1CBD200A044010B504210B48FFF7BE
:101AA000DBFE00F051F808210848FFF701FF022093
:101AB00004F066F804210548FFF7FAFE022004F05E
:101AC0005FF804210148FFF7C7FE10BD200A04405B
:101AD00070B50546002400F027F8002618E0042120
:101AE0001048FFF7B9FE022004F04AF804210D481F
:101AF000FFF7DEFE6006040E08210A48FFF754FED9
:101B000008B1601CC4B2012004F03AF8701CC6B2DF
:101B1000082EE4DB15B9FFF7BFFF01E0FFF77AFFFE
:101B2000204670BD200A04401CB50820009000200B
:101B30008DF8040001208DF8070069460148FFF781
:101B4000BBFC1CBD200A04401CB5082000900120ED
:101B50008DF8040000208DF805008DF806000120A6
:101B60008DF8070069460248FFF7A6FC1CBD00007F
:101B7000200A044070B50446FFF7E6FF042114482C
:101B8000FFF76AFE00251FE0E00920B10821104898
:101B9000FFF78EFE03E008210D48FFF75DFE6006AB
:101BA000040E022003F0ECFF04210948FFF780FE39
:101BB000022003F0E5FF04210548FFF74DFE022057
:101BC00003F0DEFF681CC5B2082DDDDB70BD000030
:101BD000200A044010B5FFF7B7FF08210A48FFF7B5
:101BE00067FE04210848FFF763FE042003F0C8FFE6
:101BF00008210548FFF730FE042003F0C1FF04214F
:101C00000148FFF729FE10BD200A044010B5FFF778
:101C10009BFF04210A48FFF71FFE08210848FFF731
:101C20001BFE042003F0ACFF04210548FFF740FE33
:101C3000042003F0A5FF08210148FFF739FE10BD7D
:101C4000200A044010B50024FFF76EFF0821114858
:101C5000FFF72EFE012003F093FF04210D48FFF74C
:101C600027FE012003F08CFF07E0601CC4B2FA2CB1
:101C700003DDFFF7CBFF012010BD08210548FFF76A
:101C800093FD0028F1D104210248FFF7E5FD002073
:101C9000F2E70000200A04402DE9F04F85B0002053
:101CA00004904FF0FF0B6F48FEF72AFF06E0ABF100
:101CB00001001FFA80FB0A2003F062FF042169483B
:101CC000FEF746FD10B9BBF1000FF0DC04216548BA
:101CD000FEF7D4FCBBF1000F4CD00C216148FEF79D
:101CE0000BFD019004F02EFD81464FF08B4104F076
:101CF0004FFC804604F0BEFB4FF066325A4BCDE9F4
:101D0000020104F0B9FA0446584A594B04F0B4FAF7
:101D1000064604F0AFF857490A780978491C554B34
:101D20001970554941F8220010214E48FEF7E4FC95
:101D3000019004F007FD4FF08B41029004F028FC65
:101D4000039004F097FB80464FF06632464B04F058
:101D500093FA0646454A464B04F08EFA044604F0D0
:101D600089F846490A780978491C444B1970444956
:101D700041F822003F48007802283BD100203D492D
:101D80000870049082460AE03B4850F82A100498F4
:101D900004F09CFB04900AF1010000F0FF0ABAF184
:101DA000020FF1DB4FF08041049804F0F1FB35495C
:101DB00008600846006804F05DFB04460022324BD0
:101DC00004F01EFA10D200203049087030484078E4
:101DD000012803D14FF496702E49088000202E4927
:101DE00008802B49487005E02848007810B9012088
:101DF0002A4908702148007802282FD100201F4965
:101E00000870049082460AE01D4850F82A10049891
:101E100004F05CFB04900AF1010000F0FF0ABAF143
:101E2000020FF1DB4FF08041049804F0B1FB1C4934
:101E300008600846006804F01DFB04460022194BA8
:101E400004F0DEF903D201201749C87106E01648F4
:101E5000C079012802D102201349C87105B0BDE83C
:101E6000F08F00000028024066660A40A376256ACB
:101E700057A21240B0000020A0000020B1000020B6
:101E8000A80000209800002000000C400000002066
:101E90000C00002090000020E6000020010000203F
:101EA0009C000020000016400F00002010B5AE4836
:101EB0008078C8B1AC488078022810D10102AB48C4
:101EC000FFF7CAFCFEF764FEA948007801280BD191
:101ED0000020A74908700120A649487004E0A448E2
:101EE000007808B9FEF774FEA248407801284DD169
:101EF0000020A049487008460078012804D0022834
:101F000023D0032841D12BE09B488078012810D1B1
:101F100098484079012802D1002096494871022052
:101F200094490870012088700121182001F002FFF7
:101F30000AE08F480078012806D103208D490870F7
:101F400001208870FEF724FE1FE08B48807830B9AE
:101F50000120884908700021182001F0EBFE14E0F0
:101F600085488078012809D10121182001F0E2FE7E
:101F70000220804908700120887005E07C480078C4
:101F800010B901207B49087000BF00BF7A488078F3
:101F900018B178488078012835D176480079012831
:101FA0003ED17648007810B975480078A0B14FF45A
:101FB00000716E48FFF750FC032072490870002042
:101FC0006F4908706D49087001206F4908706F49AA
:101FD00008700320674948726A480078D0B94FF406
:101FE00000716248FFF764FC01206949087061488C
:101FF000C07948B94FF400715C48FFF72DFC002010
:102000005C4908718870AEE05A48C079401E594951
:10201000C871A8E05B480078401E5A490870A2E0E9
:1020200054484079012851D15948007850B14FF4B3
:1020300000714E48FFF710FC03205649087000203D
:10204000534908705348007878BB01204C49087008
:102050004848C07850B34748007A98B14A48007859
:1020600028B94FF400714148FFF722FC04E04FF417
:1020700000713E48FFF7F0FB3E48007A401E3D49A4
:10208000087270E03B48007A00286CD13948C0786B
:10209000401E3849C8703C48007880F001003A4939
:1020A00008700A20334908725DE009E0FFE74FF449
:1020B00000712E48FFF7D0FB00202E49487152E0F6
:1020C00034480078401E334908704CE02948807934
:1020D000012848D12E48007810B92948007860B10D
:1020E0004FF400712148FFF7B7FB03202A4908701D
:1020F000002027490870224908702748007868BBEB
:1021000001201E4908701B48407A98B11F4800788A
:1021100028B94FF400711548FFF7CAFB04E04FF4EB
:1021200000711248FFF798FB1248407A401E11498F
:10213000487218E00F48407AA8B91448007880F037
:102140000100124908700846007818B903200949AF
:10215000487208E002200749487204E00E480078FF
:10216000401E0D49087010BD0C000020000A0440FC
:1021700027000020DC000020170000207A0000204B
:10218000790000207D0000207B0000207C000020E2
:10219000780000207E0000207F00002010B5A048BD
:1021A000007C012803D10121052001F0EBFC9C48B3
:1021B000407C012803D10221052001F0E3FC99486D
:1021C000807801287ED10021252001F0B3FD9648BA
:1021D000C07901280ED100209449087001212020E7
:1021E00001F0A8FD0121212001F0A4FD01212420FE
:1021F00001F0A0FD8E48007801280AD18A48407875
:10220000012806D10020894908700121262001F00B
:1022100091FD8548C07801280FD1002083490870BE
:1022200001211C2001F086FD01211E2001F082FD0C
:1022300001211F2001F07EFDDDE07B488078012830
:102240000FD10020794908700121202001F072FD92
:102250000121212001F06EFD0121222001F06AFD03
:10226000C9E071488079012803D06F48407801287F
:102270004BD100206D4908706E480078012805DCBC
:102280006C480078401C6B49087008E000206949E0
:1022900008706948007880F0010067490870644858
:1022A0000078B8B960484078012813D10121212075
:1022B00001F040FD0121242001F03CFD5E48007842
:1022C000012800E061E005D155498874032102200E
:1022D00001F058FC544880790128ADD1012120201B
:1022E00001F028FD0121212001F024FD01212320FE
:1022F00001F020FD5048007801287CD148498874BD
:102300000321084601F03EFC75E04748407901286A
:102310000FD10020454908700121142001F00AFD69
:102320000121162001F006FD0121172001F002FD18
:1023300061E03D48007901280FD100203B49087039
:102340000121152001F0F6FC0121162001F0F2FC1C
:102350000121172001F0EEFC4DE033480078012800
:1023600049D10020314908700121022001F0E2FC2E
:1023700001211D2001F0DEFC01211E2001F0DAFC0C
:1023800001211F2001F0D6FC35E02648807840B9B5
:102390002A48007850BB01202849087001F00EFA45
:1023A00029E020488078022825D1002023490870A0
:1023B0000021022001F0BEFC1C480078012805DC49
:1023C0001A480078401C1949087008E00020174995
:1023D00008701B48007880F00100194908701848FF
:1023E000007820B90021252001F0A4FC03E00121A0
:1023F000252001F09FFC0B48407880B9094880787F
:1024000018B108488078022803D1002008490870D4
:1024100005E00548407810B900200549087010BD56
:10242000C80000200C0000200F0000202F0000201A
:102430002900002031000020320000202E00002062
:102440003000002010B556480078002804DD5448BC
:102450000078401E5249087052480078012871D116
:1024600051480078002805DD4F480078401E4E494D
:10247000087005E006204A490870002049490870A4
:102480004A490878C11700EB91718910A0EB8101CE
:1024900002296FDA46484078F0B94548007838B9E3
:1024A00043480278012319460020FEF7B3FB65E09C
:1024B0003F480078042807D13D4802780123194697
:1024C0000020FEF7A7FB59E039480278012319469E
:1024D0000020FEF79FFB51E035484078012821D1CC
:1024E0003348007840B932480278012319466FF02A
:1024F0000900FEF78FFB41E02D480078042808D141
:102500002B480278012319466FF02100FEF782FB69
:1025100034E027480278012319466FF01800FEF7CF
:1025200079FB2BE022484078022827D12048007808
:1025300048B91F480278012319466FF01300FEF7CF
:1025400069FB1BE027E01A480078042808D11848E6
:102550000278012319466FF04300FEF75BFB0DE0A4
:1025600013480278012319466FF03200FEF752FB40
:1025700004E0FFE70121084601F05EF90B4800780E
:10258000401C0A4908700221042001F0FBFA0120D6
:102590000849887402E000200449087010BD00005A
:1025A0002300002021000020220000203400002011
:1025B00017000020C800002010B50F488078D0B95F
:1025C0000D484078012816D101F00EF901210B4881
:1025D000007801F0AFFB09480078401C07490870FB
:1025E000084600782E2801DD2C20087001210348C0
:1025F000007801F09FFB10BD0C000020330000208C
:102600002DE9FC47BB48807C002876D1BA48007889
:10261000052873D2DFE800F00362ADF2F000B548A0
:102620008068002815DBB349886804F073F8824697
:1026300003F020FF80460022B04B03F01DFE06464B
:102640000022AF4B03F054FC044603F0A9FD0190B7
:1026500014E0A849886804F05DF8824603F00AFF98
:102660008046A84AA84B03F007FE06460022A44B6A
:1026700003F03EFC044603F093FD01909D48C068C2
:10268000002815DB9B49C86804F044F8824603F033
:10269000F1FE80460022994B03F0EEFD0646002233
:1026A000974B03F025FC044603F07AFD009014E0FC
:1026B0009049C86804F02EF8824603F0DBFE80469D
:1026C000904A914B03F0D8FD064600228C4B03F054
:1026D0000FFC044603F064FD0090EEE0854880683E
:1026E00000280CDB834880684FF47A7190FBF1F08E
:1026F000019001A802F0F0FC16E0F6E0DCE07D4974
:10270000886804F007F8824603F0B4FE80467F4AEA
:102710007F4B03F0B1FD06460022794B03F0E8FB46
:10272000044603F03DFD01907248C06800280ADBB2
:102730007048C0684FF47A7190FBF1F000906846E1
:1027400002F0CAFC14E06B49C86803F0E3FF82465C
:1027500003F090FE80466D4A6D4B03F08DFD0646FA
:102760000022674B03F0C4FB044603F019FD009000
:10277000A3E060488068002807DB5E48806842F27A
:10278000107190FBF1F0019014E05A49886803F051
:10279000C1FF824603F06EFE06465C4A5C4B03F0C6
:1027A0006BFD04460022564B03F0A2FB804603F06B
:1027B000F7FC01904F48C068002807DB4D48C0680F
:1027C00042F2107190FBF1F0009014E04949C868A2
:1027D00003F0A0FF824603F04DFE06464B4A4C4BE9
:1027E00003F04AFD04460022454B03F081FB80467E
:1027F00003F0D6FC009060E049E0FFE73D488068C8
:1028000000280ADB3B4880684FF47A7190FBF1F0B6
:10281000019001A802F060FC14E03649886803F0DA
:1028200079FF824603F026FE8046384A384B03F093
:1028300023FD06460022324B03F05AFB044603F008
:10284000AFFC01902B48C06800280ADB2948C0680B
:102850004FF47A7190FBF1F00090684602F03CFC76
:1028600014E02449C86803F055FF824603F002FED5
:102870008046264A264B03F0FFFC06460022204BEA
:1028800003F036FB044603F08BFC009015E019487A
:1028900080684FF47A7190FBF1F0019001A802F08A
:1028A0001BFC1448C0684FF47A7190FBF1F0009063
:1028B000684602F011FC00E000BF00BF1548007838
:1028C00098B90C48007C30B90B48027800230121EC
:1028D0000198FEF79FF90748407C30B90648027816
:1028E000002302210098FEF795F900200149887421
:1028F000BDE8FC87C80000201700002000002D4024
:10290000006AF84048E17A14AE873D40AAF1D24D02
:1029100062C0524021000020002100203F4A12786E
:10292000012A1BD03D4AD278012A17D03B4A52785F
:10293000012A13D0394A9278012A0FD0374A5279A6
:10294000012A0BD0354A1279012A07D0334A9279ED
:10295000012A03D0314AD279012A01D1012200E0B3
:1029600000221146012907D12D4B9A7000222D4BD0
:102970001A802B4B5A7028E0284A1278022A1BD062
:10298000264AD278022A17D0244A5278022A13D033
:10299000224A9278022A0FD0204A5279022A0BD07A
:1029A0001E4A1279022A07D01C4A9279022A03D0C1
:1029B0001A4AD279022A01D1012200E000221046EF
:1029C000012802D10222164B9A70144A1278012A69
:1029D0001FD1124AD278012A1BD0104A5278012AFC
:1029E00017D00E4A9278012A13D00C4A5279012A44
:1029F0000FD00A4A1279012A0BD0084A9279012A8B
:102A000007D0064AD279012A03D00122064B1A7058
:102A100002E00022044B1A70704700000F000020F3
:102A20000C000020E60000202600002010B50E4813
:102A3000007800B910BD0C480078401E0A490870A3
:102A40000A480B490978445C09480078401CC0B228
:102A500007490870022801DB00200870054804704F
:102A600000F014FD00BFE5E7820000208000002098
:102A700085000020830000202DE9F0415F480078A8
:102A8000002876D1002500245D48FEF76BFE07463E
:102A90000F2020EA273607E006F0010008B1681C85
:102AA000C5B27610601CC4B20EB1022DF4DB012D4C
:102AB00006DD0220534908700020534908709AE04F
:102AC0003DBB00205149086002204E49087000209B
:102AD0004F4908704F480078B8B14B480078A0B112
:102AE0004948007802280DD04B480078012803D1CE
:102AF00045480078042803D04348007800F02CFEB5
:102B0000FEF74CF846203D49087000203E49087009
:102B100071E03D480078A8B940480078A0420BD148
:102B200038480078401E3749087008460078002869
:102B300061D1354804705EE00220324908703748A0
:102B4000047058E031480068B0F5967F05D22F48F0
:102B50000068401C2D49086003E04FF496702B4933
:102B600008602A480068642804D2012029490870B6
:102B700041E03BE00020274908702548007888BBE9
:102B800022480068B0F5967F35D3012020490870AF
:102B9000012C06D0022C10D0032C1AD0042C23D1E7
:102BA00021E01F48007820B90A2000F0D5FDFDF78C
:102BB000F5FF32201149087017E01748007810B966
:102BC000062000F0C9FDFDF7E9FF32200B4908702F
:102BD0000BE0052000F0C0FDFDF7E0FF32200749C3
:102BE000087002E007E000E000BF04E0034800785E
:102BF000401E02490870BDE8F08100008C000020F2
:102C0000000A04408D00002083000020880000207E
:102C10008600002087000020210000208E00002078
:102C20002300002010B54FF400710648FEF714FE93
:102C30004FF4806103488030FEF70EFE002001F063
:102C400085FC10BD000A044000204249097811B9F2
:102C500042F210700AE03F490978012901D13E484B
:102C600004E03C490978022900D13C483C49896884
:102C7000814237DA00213B4A11703B4A11703B49CF
:102C8000497801292AD13649097C39BB3849097864
:102C900064291DDD3749097811B90121354A1170C0
:102CA0002C49097829B90121334A1170294A117038
:102CB0004EE028490978012906D100212E4A1170D9
:102CC0000221244A117043E000212B4A11703FE099
:102CD00027490978491C264A117039E00021244A05
:102CE000117035E023490978012924D12249097856
:102CF000012905D11A49896843F2DD52914207DC66
:102D00001D490978B9B9164989681C4A914212DDF2
:102D10000021174A1170144A1170124909780529C7
:102D200003DD0221134A117012E00E490978491C93
:102D30000C4A11700CE00C490978032903DD0021CD
:102D40000B4A117004E008490978491C064A1170C1
:102D50007047000024000020B97BFFFF71F7FEFFE1
:102D6000C80000202A0000202B0000200C000020BA
:102D7000250000200F0000202C000020DDBDFFFFFB
:102D800010B5214801F0D8FC1F48001DFEF7C0FD1A
:102D90001D4800681D498968401A1B49886008461B
:102DA00040681A49C968401A1749C86008468068CF
:102DB0001749884208DD1448806842F21071884241
:102DC00002DA0020104988600F4880681149884263
:102DD00002DA08460C4988600B48C0680E498842F0
:102DE00008DD0948C06842F21071884202DA00200A
:102DF0000549C8600448C0680649884202DA0846A6
:102E00000149C86010BD0000C8000020B4000020C7
:102E1000DDBDFFFF6079FEFFB97BFFFF70B50024C9
:102E2000002500264A480078012858D1002048494A
:102E3000087048484078012803D046488078012827
:102E400003D10126062044490870444800684449DB
:102E50000968444A114488420CDD404800684049F2
:102E6000096852421144884204DA3C48007C08B99F
:102E7000002400E001243948406839494968394A4A
:102E800052421144884204DA3448407C08B9002593
:102E900000E0012504B945B13348807808B9FDF751
:102EA0008DFE06202C49087019E0C6B92B48006831
:102EB0002B49886029484068C8600846007CA128E2
:102EC00007D0264800680860244840684860A12070
:102ED0000874234B142206210020FEF77FF81E48B9
:102EE0000078002826DD1D48007CF8B91B48407C8E
:102EF000E0B901201949887417480078401E164926
:102F00000870012C03D10121102000F013FF012DC6
:102F100003D10121112000F00DFF0121122000F04A
:102F200009FF0321012000F02DFE0FE000200A49D7
:102F300008700BE00021102000F0FCFE00211120A1
:102F400000F0F8FE0021122000F0F4FE70BD000039
:102F5000280000200C0000202D000020C8000020C8
:102F6000B40000206079FEFF1700002010B556481D
:102F70000088002804DD54480088401E524908801B
:102F800001215248FEF710FCC0B9002050490870DA
:102F9000504800781E280BDD4F484078012803D1A7
:102FA0004FF496704849088001204C49C8701DE0D4
:102FB00048480078401C4749087017E04748C078E7
:102FC000012810D100204349087041480078322878
:102FD00003DD02204149C87008E03D480078401CEC
:102FE0003B49087002E000203A4908700221374846
:102FF000FEF7DAFBC0B9002039490870394800787B
:103000001E280BDD34484078012803D14FF4967018
:103010002D4908800120314948701DE03148007871
:10302000401C3049087017E02C484078012810D126
:1030300000202C4908702A480078322803DD02203D
:103040002649487008E026480078401C244908704A
:1030500002E000202349087010211C48FEF7A4FB61
:10306000C0B90020204908702048007832280BDDC4
:1030700019484078012803D14FF49670124908800E
:103080000120164988701DE018480078401C174937
:10309000087017E011488078012810D100201349EA
:1030A000087011480078322803DD02200B4988702F
:1030B00008E00D480078401C0B49087002E0002031
:1030C0000A49087010BD000090000020800A0440EA
:1030D00093000020920000200C0000200F00002030
:1030E000950000209400002097000020960000200A
:1030F00030B585B0002400255448FEF705FC14289F
:103100007BDB01231A466946504802F071FC002817
:1031100074D09DF8000055286FD1012313220DF1C2
:1031200001014A4802F064FC002868D09DF81200B2
:103130000D287ED19DF813000A287AD100BF05E042
:103140001DF804002844C5B2601CC4B2112CF7DB82
:103150009DF81100A84277D19DF801003C494880B4
:10316000084640884FF6FF7101EA00203849488040
:10317000084640889DF802100844354948809DF86B
:1031800005008880084680884FF6FF7101EA00201C
:103190002F498880084680889DF8061008442C49ED
:1031A00088809DF8070088719DF80800C8719DF817
:1031B0000E0008729DF80F0048729DF8100088728A
:1031C0000846407A00F00200022803D1012021497C
:1031D000487106E01F484079012802D102201D49AC
:1031E00048711D48008840B91948407A00F0010034
:1031F00030B101201749087109E019E021E01CE015
:1032000014480079012802D102201249087110489F
:10321000407A00F0FC0020B101200E49887113E0D3
:1032200007E00C48807901280ED1022009498871F5
:103230000AE0064800F020F906E0044800F01CF916
:1032400002E0024800F018F905B030BDF20000209D
:10325000E60000200F0000209000002070B5002440
:103260004FF6FF7519480088000A1949C8701748B9
:10327000007808710020887100BF08E01448807948
:103280001349095D084412498871601CC4B2062CB8
:10329000F4DB002416E04FF6FF7504E0681E85B2EB
:1032A0000A2002F06DFC04210A4802F081F901288D
:1032B00001D0002DF2DC0648015D064802F000FC5A
:1032C000601CC4B2092CE6DB70BD0000E6000020E3
:1032D000490000200008024000BFFEE710B5044688
:1032E000FEF778FCDA20FEF745FCFEF7ABFC062083
:1032F000FEF740FCFEF7A6FCB0B9FEF76BFCDB2046
:10330000FEF738FCFEF79EFC0120FEF7E1FB207083
:103310000120FEF7DDFB60700020FEF7D9FBA070F6
:10332000FEF774FC012010BD0020FCE710B5FF245F
:10333000FEF750FCDA20FEF71DFCFEF783FC302080
:10334000FEF718FCFEF77EFCFEF744FCDB20FEF7E0
:1033500011FCFEF777FC0020FEF7BAFB0446FEF7EF
:1033600055FC04F0080090B9FEF734FCDA20FEF7B3
:1033700001FCFEF767FC3020FEF7FCFBFEF762FC69
:103380000A20FEF7F7FBFEF75DFCFEF73FFC10BDE1
:1033900010B5FEF71FFCDA20FEF7ECFBFEF752FC3F
:1033A000A520FEF7E7FBFEF74DFCFEF713FCDB2044
:1033B000FEF7E0FBFEF746FC0020FEF789FBFEF778
:1033C00025FCFEF707FCDA20FEF7D4FBFEF73AFCFB
:1033D000A520FEF7CFFBFEF735FC1920FEF7CAFB50
:1033E000FEF730FCFEF712FCFEF7F4FBDA20FEF7E6
:1033F000C1FBFEF727FC3020FEF7BCFBFEF722FCEA
:103400000A20FEF7B7FBFEF71DFCFEF7FFFB10BD21
:103410004AF6AA200149088070470000047C004059
:1034200070B504460D466CB1012C0BD0022C09D0AE
:10343000032C07D0042C05D0052C03D0062C01D07A
:10344000072C00D103E04B21084802F067FBB5F5DB
:10345000805F00DA03E04C21044802F05FFB04487F
:1034600040EA043028430349086070BD4469000005
:103470000000A55A007C00400146002064314880CD
:1034800008808880643901207047000010B5944896
:1034900000780B287ED2DFE800F07D907DCC06E03E
:1034A000DC7D7D7DF8008F48407800287BD18D48F9
:1034B000807850BB40F6B8308B490880012089499C
:1034C00048708A4908708A484078012808D189489C
:1034D00080688949884212DD0120884908700EE021
:1034E00083484078022802D18449087007E0814867
:1034F00080688149884202DD0020804908700020F0
:103500007F4908707F49087056E07F48007801289D
:1035100003D07448807802284ED140F6B830724902
:10352000088001206F4948707049087000206D497B
:1035300088707349087048708870C8700871487145
:103540008871C8716A484078012808D16948806844
:103550006949884212DD0120684908700EE064481C
:103560004078022802D16549087007E06148806808
:103570006149884202DD00206049087000206149ED
:103580000870FDF705FB00206049087001206049C4
:10359000487001E09FE006E000F010F900210220F1
:1035A00000F0C8FB08E04F484078012804D1002013
:1035B0004D4908804B4948708DE0564800780128F5
:1035C00025D14B484078401C49494870084640780E
:1035D000032801DB00204870454B04220221002013
:1035E000FDF7FCFC0A204C4908704148407801284E
:1035F00002D1424908701BE03D484078022802D1C0
:103600003E49087014E000203C49087010E038483A
:103610000078401C3649087008460078052801DB10
:1036200000200870324B042202210020FDF7D6FC56
:1036300051E03748407858B90120354948702C4846
:10364000807828B927488078012801D12F4908704F
:1036500041E00120314908703DE02D48407890B9A3
:1036600001202B4948702248807818B90120204950
:10367000887002E000201E4988701D4B0422022140
:103680000020FDF7ABFC26E0FFE716484078E0B9E4
:103690001448807818B113488078022815D115484D
:1036A000007C90B91348407C78B91A48007808B972
:1036B000012000E000201749087008460078012822
:1036C00008D10A201449087004E00948807808B934
:1036D000FDF774FA00BF00BF00200149087010BD5B
:1036E000830000200C000020E600002029000020BC
:1036F00017000020C8000020530D01002400002006
:103700000F000020250000202600002027000020B8
:10371000DC000020210000202200002028000020E2
:103720001CB50121042001F005FB4FF4704000900E
:1037300000208DF8040001208DF807006946054837
:10374000FDF7BAFE01224FF470410248FDF772FF07
:103750001CBD0000000A04400C490978022900DB66
:1037600070470A490978491C084A11700849094AF2
:103770001278885407490978491CC9B2054A117062
:10378000022901DB0021117000BFE9E7820000205F
:103790008000002084000020002007490860091DE7
:1037A0000860091D0860091D0860091D0860091DE1
:1037B0000860091D086070471038024010B51024D9
:1037C00005E00021204600F0B5FA601CC4B2172CB9
:1037D000F7DD192405E00021204600F0ABFA601C5B
:1037E000C4B2262CF7DD10BD10B52C2405E0002155
:1037F000204600F09FFA601CC4B22E2CF7DD10BDED
:1038000010B50446012C04D10021032000F092FAE7
:1038100010E0022C04D10021272000F08BFA09E0EF
:10382000032C07D10021032000F084FA0021272077
:1038300000F080FA10BD000070B505460E464EB986
:103840002846FFF7DDFF284600F038F8284600F04C
:103850005EF807E0012E05D12846FFF7D1FF284684
:1038600000F02CF8012D0BD1012406E01249887AD2
:10387000214600F0DFF8601CC4B2042CF6DD1AE02B
:10388000022D0BD1052406E00B49887A214600F071
:10389000D1F8601CC4B2082CF6DD0CE0032D0AD16F
:1038A000012406E00449887A214600F0C3F8601C30
:1038B000C4B2082CF6DD70BD5200002030B50546BC
:1038C000012D0AD1282405E00021204600F032FA1B
:1038D000601CC4B2292CF7DD18E0022D0AD12A247D
:1038E00005E00021204600F025FA601CC4B22B2C14
:1038F000F7DD0BE0032D09D1282405E00021204647
:1039000000F018FA601CC4B22B2CF7DD30BD30B5C6
:103910000546012D0AD1042405E00021204600F0CF
:1039200009FA601CC4B2092CF7DD18E0022D0AD197
:103930000A2405E00021204600F0FCF9601CC4B216
:103940000F2CF7DD0BE0032D09D1042405E0002145
:10395000204600F0EFF9601CC4B20F2CF7DD30BD3B
:103960000EB500F0A5FD0121080301F04BFA6846F1
:1039700000F078FE009820F001000090009820F000
:1039800002000090009820F01C000090009820F4A5
:10399000F07000F5F0700090009820F4007000F5D1
:1039A00000700090009820F480600090009820F44F
:1039B00000600090009820F4405000F58050009086
:1039C000009820F4404000F540400090009820F41A
:1039D000803000F580300090009820F4C0200090E6
:1039E000019820F0FF000F300190019820F47F40F3
:1039F00000F57F400190019820F47F0000F57F00E2
:103A00000190019820F07F40A0F180700190029811
:103A100020F0FF00C01C0290029820F47060029019
:103A20006946034800F08AFD012000F08FFD0EBDBD
:103A300000380240092978D2DFE801F09E05192BF1
:103A40003F5163788A004E4AD27F02F0F00200F0C4
:103A50000F031A434A4BDA77494A2032127802F0B0
:103A6000F10242EA1012464B20331A7085E0444AB4
:103A7000527F02F0F00200F00F031A43404B5A77D6
:103A80001A46927F02F0F10242EA10133C4A937701
:103A900073E03B4AD27E02F0F00200F00F031A43BB
:103AA000374BDA76364A1C32127802F0F10242EADB
:103AB0001012334B1C331A705FE0314A527E02F011
:103AC000F00200F00F031A432D4B5A761A46927EED
:103AD00002F0F10242EA1013294A93764DE0284A97
:103AE000927D02F0F00200F00F031A43244B9A7506
:103AF0001A46D27D02F0F10242EA1013204AD37531
:103B00003BE01F4A1432127802F0F00200F00F037B
:103B10001A431B4B14331A70194A527D02F0F102FA
:103B200042EA1013164A537527E025E0144A927CA6
:103B300002F0F00200F00F031A43114B9A741A4678
:103B4000D27C02F0F10242EA10130D4AD37414E061
:103B50000B4A1032127802F0F00200F00F031A4301
:103B6000074B10331A70064A527C02F0F10242EA07
:103B70001013034A537400E000BF00BF70470000F9
:103B80000038024030B505460C462046FFF738FEA7
:103B90002046FFF793FE2046FFF7B9FE062D7DD2A3
:103BA000DFE805F0C3032C55809561498878012131
:103BB000FFF740FF5E49C87A0221FFF73BFF5C49EF
:103BC000087C0321FFF736FF5949487C0421FFF7A1
:103BD00031FF5749C87A0521FFF72CFF5449087C6B
:103BE0000621FFF727FF5249087C0721FFF722FF34
:103BF0004F49887A0821FFF71DFF97E04C49C87BA1
:103C00000121FFF717FF4A49487B0221FFF712FF06
:103C10004749487D0321FFF70DFF4549487A0421B4
:103C2000FFF708FF424908780521FFF703FF4049E5
:103C3000887C0621FFF7FEFE3D49887B0721FFF7C0
:103C4000F9FE3B49887A0821FFF7F4FE6EE0384917
:103C5000C87C0121FFF7EEFE3549087D0221FFF700
:103C6000E9FE3349087C0321FFF7E4FE3049487C34
:103C70000421FFF7DFFE2E49C87C0521FFF7DAFE9D
:103C80002B49C87C0621FFF7D5FE2949487B07212F
:103C9000FFF7D0FE2649C87A082100E045E0FFF78B
:103CA000C9FE43E02249887B0521FFF7C3FE204976
:103CB000C87C0621FFF7BEFE1D49487C0721FFF79F
:103CC000B9FE1B49C87B0821FFF7B4FE2EE0012C8A
:103CD00014D11749C87A0121FFF7ACFE144948787E
:103CE0000221FFF7A7FE1249887A0321FFF7A2FEFF
:103CF0000F49887A0421FFF79DFE15E0022C13D1AD
:103D00000B49C87A0521FFF795FE09494878062135
:103D1000FFF790FE0649887A0721FFF78BFE0449DA
:103D2000887A0821FFF786FE00E000BF00BF30BDA3
:103D3000520000202F2870D2DFE800F06F182736DD
:103D4000495C708396A9BCF3F1F0EFEEEDECEBEA81
:103D5000E9E8E7E6E5E4E3E2E1E0DFDEDDDCDBDA4B
:103D6000D9D8D7D6D5D4D3D2D1D0CF0031B9F74A0C
:103D7000127822F00102F54B1A7005E0F34A12782E
:103D800042F00102F14B1A7079E331B9EF4A12782F
:103D900022F00202ED4B1A7005E0EC4A127842F074
:103DA0000202EA4B1A706AE341B9E84A0832127813
:103DB00022F00102E54B08331A7007E0E34A0832AB
:103DC000127842F00102E14B08331A7057E341B90F
:103DD000DE4A0932127822F00203DC4A09321370FB
:103DE00007E0DA4A0932127842F00203D74A093270
:103DF000137044E341B9D54A0A32127822F0010324
:103E0000D24A0A32137007E0D04A0A32127842F0DE
:103E10000103CE4A0A32137031E32FE341B9CB4A92
:103E20000B32127822F00103C84A0B32137007E0FC
:103E3000C64A0B32127842F00103C44A0B321370A7
:103E40001DE341B9C14A0C32127822F00102BF4B86
:103E50000C331A7007E0BD4A0C32127842F00102AE
:103E6000BA4B0C331A700AE341B9B84A0D321278D2
:103E700022F00103B54A0D32137007E0B34A0D3248
:103E8000127842F00103B14A0D321370F7E241B9E2
:103E9000AE4A183A927F22F00103AC4A183A93775F
:103EA00007E0AA4A183A927F42F00103A74A183A5B
:103EB0009377E4E241B9A54A183AD27D22F0010392
:103EC000A24A183AD37507E0A04A183AD27D42F0C8
:103ED00001039E4A183AD375D1E2BCE2A8E294E20B
:103EE00080E26CE258E244E230E21CE208E2F4E1F3
:103EF000E0E1CCE1B8E1A4E190E17CE168E154E1EA
:103F000040E12CE117E103E1EFE0DBE0C7E0B3E0E3
:103F10009FE08BE077E063E04FE03BE027E013E0D9
:103F2000FFE741B9894A183A527D22F00103874AD6
:103F3000183A537507E0854A183A527D42F001035A
:103F4000824A183A53759AE241B9804A0E32127881
:103F500022F001037D4A0E32137007E07B4A0E32D5
:103F6000127842F00103794A0E32137087E241B9A8
:103F7000764A0F32127822F00103744A0F3213701E
:103F800007E0724A0F32127842F001036F4A0F3293
:103F9000137074E241B96D4A1032127822F00102B6
:103FA0006A4B10331A7007E0684A1032127842F0F8
:103FB0000102664B10331A7061E241B9634A113253
:103FC000127822F00103614A1132137007E05F4A50
:103FD0001132127842F001035C4A113213704EE242
:103FE00041B95A4A0932127822F00403574A093279
:103FF000137007E0554A0932127842F00403534A1D
:10400000093213703BE241B9504A0A32127822F069
:1040100002034E4A0A32137007E04C4A0A32127801
:1040200042F00203494A0A32137028E241B9474A72
:104030000B32127822F00203444A0B32137007E06D
:10404000424A0B32127842F00203404A0B3213709C
:1040500015E241B93D4A0C32127822F002023B4B84
:104060000C331A7007E0394A0C32127842F002021F
:10407000364B0C331A7002E241B9344A0E321278D0
:1040800022F00403314A0E32137007E02F4A0E3239
:10409000127842F004032D4A0E321370EFE141B959
:1040A0002A4A0F32127822F00403284A0F32137082
:1040B00007E0264A0F32127842F00403234A0F32F7
:1040C0001370DCE141B9214A1032127822F0040267
:1040D0001E4B10331A7007E01C4A1032127842F05F
:1040E00004021A4B10331A70C9E141B9174A113250
:1040F000127822F00203154A1132137007E0134AB6
:104100001132127842F00203104A11321370B6E1F4
:1041100041B90E4A0A32127822F008030B4A0A32D9
:10412000137007E0094A0A32127842F00803074A7E
:104130000A321370A3E159B9044A0932127822F005
:104140000803024A0932137008E0000018380240E0
:10415000CC4A127842F00803CA4A13708FE141B981
:10416000C84A521C127822F00403C64A521C13702B
:1041700007E0C44A521C127842F00403C14A521CA0
:1041800013707CE141B9BF4A921C127822F00403FB
:10419000BC4A921C137007E0BA4A921C127842F093
:1041A0000403B84A921C137069E141B9B54A521D23
:1041B000127822F00803B34A521D137007E0B14A87
:1041C000521D127842F00803AE4A521D137056E198
:1041D00041B9AC4A921D127822F00803A94A921DF7
:1041E000137007E0A74A921D127842F00803A54A0F
:1041F000921D137043E141B9A24AD21D127822F0F8
:104200000802A04BDB1D1A7007E09E4AD21D1278EF
:1042100042F008029B4BDB1D1A7030E141B9994A0C
:104220000832127822F00403964A0832137007E02D
:10423000944A0832127842F00403924A083213700A
:104240001DE141B98F4A921C127822F008038D4A71
:10425000921C137007E08B4A921C127842F00803FC
:10426000884A921C13700AE141B9864AD21C12781E
:1042700022F00402834BDB1C1A7007E0814AD21C37
:10428000127842F004027F4BDB1C1A70F7E041B950
:104290007C4AD21C127822F008027A4BDB1C1A707E
:1042A00007E0784AD21C127842F00802754BDB1CFA
:1042B0001A70E4E041B9734A121D127822F0020329
:1042C000704A121D137007E06E4A121D127842F0F8
:1042D00002036C4A121D1370D1E041B9694A121DE4
:1042E000127822F00403674A121D137007E0654A32
:1042F000121D127842F00403624A121D1370BEE0D0
:1043000041B9604A121D127822F008035D4A121D5D
:10431000137007E05B4A121D127842F00803594AF5
:10432000121D1370ABE041B9564A0832127822F0E0
:104330000803544A0832137007E0524A08321278D0
:1043400042F008034F4A0832137098E041B94D4AD1
:10435000093A127822F004024A4B093B1A7007E02E
:10436000484A093A127842F00402464B093B1A7057
:1043700085E041B9434A521F127822F00102414BB5
:104380005B1F1A7007E03F4A521F127842F0010289
:104390003C4B5B1F1A7072E041B93A4A213A927E57
:1043A00022F00103374A213A937607E0354A213A51
:1043B000927E42F00103334A213A93765FE041B99D
:1043C000304A213AD27C22F001032E4A213AD3749A
:1043D00007E02C4A213AD27C42F00103294A213AD3
:1043E000D3744CE041B9274A213A527C22F00103B0
:1043F000244A213A537407E0224A213A527C42F07F
:104400000103204A213A537439E041B91D4A921DF3
:10441000127822F002031B4A921D137007E0194A1A
:10442000921D127842F00203164A921D137026E084
:1044300041B9144A521D127822F00203114A521D4A
:10444000137007E00F4A521D127842F002030D4A22
:10445000521D137013E041B90A4AD21D127822F09E
:104460000202084BDB1D1A7007E0064AD21D1278C3
:1044700042F00202034BDB1D1A7000E000BF00BFD8
:1044800070470000213802404FF00F3007490860A4
:10449000091D0860091D0860091D0860091D0860E4
:1044A000091D08600012091D08607047103802409D
:1044B0001CB50121042000F03DFCF02000900120FB
:1044C0008DF8040000208DF805008DF806008DF8A9
:1044D000070069461848FCF7EFFF0922F02116484B
:1044E000FDF7A8F84FF47040009069461248FCF7B9
:1044F000E3FF09224FF470410F48FDF79BF84EF699
:10450000FF70009069460C482030FCF7D5FF092267
:104510004EF6FF7108482030FDF78CF87F200090A0
:10452000694605484030FCF7C7FF09227F21024851
:104530004030FDF77FF81CBD200A04400A4613688E
:1045400003605368436093688360704710B5044606
:10455000012C00D004B903E08421094801F0DEFAFF
:1045600034B10848006840F001000649086005E0E1
:104570000448006820F001000249086010BD0000F6
:10458000C06A00000038024010B54FF48061304826
:10459000FDF78EF92F480078042801DAFFF774FF41
:1045A0002C480078042801D1FFF7F6F82948007854
:1045B000042826DB27480078072822DA2649887C49
:1045C0000121FFF737FA2449C87B0221FFF732FAAD
:1045D000214908780321FFF72DFA1F494879042162
:1045E000FFF728FA1C49087B0521FFF723FA1A492F
:1045F00008780621FFF71EFA174988780721FFF788
:1046000019FA14480078072818D1FFF7C5F80121D6
:104610000846FFF78FFB01212C20FFF78BFB0121C0
:104620002D20FFF787FB0D488078012803D1012159
:104630001820FFF77FFB0120094908700548007822
:10464000082804DA03480078401C0249087010BDAD
:10465000800A04406800002052000020170000205B
:104660000C000020016821F001010160016821F0C7
:1046700002010160016821F01C010160016821F460
:10468000F07140310160016821F40071016001683E
:1046900021F480610160016821F40061016001681A
:1046A00021F440510160016821F44041016001683A
:1046B00021F480310160016821F4C021016041686A
:1046C00021F0FF014160416821F47F414160416870
:1046D00021F47F014160416821F07F4141608168A0
:1046E00021F0FF018160816821F470618160704771
:1046F0001CB50121042000F01DFB4FF480600090E8
:1047000001208DF8040000208DF805008DF80600CA
:104710008DF8070069460748FCF7CEFE012291029A
:104720000448FCF787FF4FF480610248FDF794F8D6
:104730001CBD0000800A0440F8B507460026684604
:1047400000F0DAF9012854D100203549087000F052
:10475000FBF934480078022845DD9DF802009DF8F9
:10476000011040EA01209DF8001040EA01442E4863
:10477000844202DD6FF07F40241A6CB92B48007828
:10478000032803DD01202A490874F8BD2748007872
:10479000401C2649087002E00020244908700020CF
:1047A00023490874234801780078401C214A10707E
:1047B000214840F821401046007804282EDB0020D4
:1047C00011460870002505E01B4850F825000644F6
:1047D000681CC5B2042DF7DB3046F11706EB91716A
:1047E000891039601AE00F480078401C0D490870A4
:1047F00014E000200B49087000F0D8F90848007850
:104800000A2806DD01200A490874002009490870B9
:1048100004E003480078401C0149087000BFB4E779
:104820007100002072000020BFBDF0007300002066
:10483000C8000020700000206805002010B501218C
:104840000B48FDF709F800F093F802210848FDF73E
:1048500003F8022001F094F901210548FDF728F83A
:10486000022001F08DF901210148FCF7F5FF10BD90
:10487000200A04401CB50121042000F05BFA03204B
:10488000009001208DF8040000208DF80500012023
:104890008DF806008DF8070069460848FCF70CFE05
:1048A000012203210548FCF7C5FE01210348FCF75E
:1048B000FFFF02210148FCF7FBFF1CBD200A04405A
:1048C00010B501210B48FCF7C7FF00F051F8022199
:1048D0000848FCF7EDFF022001F052F901210548DC
:1048E000FCF7E6FF022001F04BF901210148FCF73B
:1048F000B3FF10BD200A044070B50546002400F047
:1049000027F8002618E001211048FCF7A5FF022037
:1049100001F036F901210D48FCF7CAFF6006040ECC
:1049200002210A48FCF740FF08B1601CC4B2012014
:1049300001F026F9701CC6B2082EE4DB15B9FFF7AA
:10494000BFFF01E0FFF77AFF204670BD200A044058
:104950001CB50220009000208DF8040001208DF885
:10496000070069460148FCF7A7FD1CBD200A04406A
:104970001CB50220009001208DF8040000208DF865
:1049800005008DF8060001208DF8070069460248F1
:10499000FCF792FD1CBD0000200A044070B50446DF
:1049A000FFF7E6FF01211448FCF756FF00251FE042
:1049B000E00920B102211048FCF77AFF03E0022150
:1049C0000D48FCF749FF6006040E022001F0D8F8FC
:1049D00001210948FCF76CFF022001F0D1F8012108
:1049E0000548FCF739FF022001F0CAF8681CC5B27F
:1049F000082DDDDB70BD0000200A044010B5FFF774
:104A0000B7FF02210A48FCF753FF01210848FCF7D1
:104A10004FFF042001F0B4F802210548FCF71CFF09
:104A2000042001F0ADF801210148FCF715FF10BD8D
:104A3000200A044010B5FFF79BFF01210A48FCF74C
:104A40000BFF02210848FCF707FF042001F098F84B
:104A500001210548FCF72CFF042001F091F8022108
:104A60000148FCF725FF10BD200A044010B50024C2
:104A7000FFF76EFF02211148FCF71AFF012001F039
:104A80007FF801210D48FCF713FF012001F078F8B1
:104A900007E0601CC4B2FA2C03DDFFF7CBFF012056
:104AA00010BD02210548FCF77FFE0028F1D101214D
:104AB0000248FCF7D1FE0020F2E70000200A044083
:104AC00043F2CC300B4908800A483C38006820F497
:104AD000004000F5004007493C39086000BF054828
:104AE0003C380068C0F300400028F8D0002001499D
:104AF000088070473C3C044010B50446FFF77EFF39
:104B0000DA20FFF74BFFFFF7B1FF0620FFF746FF64
:104B1000FFF7ACFFB0B9FFF771FFDB20FFF73EFFF7
:104B2000FFF7A4FF0120FFF7E7FE20700120FFF749
:104B3000E3FE60700020FFF7DFFEA070FFF77AFF52
:104B4000012010BD0020FCE710B5FF24FFF756FF41
:104B5000DA20FFF723FFFFF789FF3020FFF71EFF62
:104B6000FFF784FFFFF74AFFDB20FFF717FFFFF790
:104B70007DFF0020FFF7C0FE0446FFF75BFF04F057
:104B8000080090B9FFF73AFFDA20FFF707FFFFF7B9
:104B90006DFF3020FFF702FFFFF768FF0A20FFF7E5
:104BA000FDFEFFF763FFFFF745FF10BD10B5FFF7F0
:104BB00025FFDA20FFF7F2FEFFF758FFA520FFF7E9
:104BC000EDFEFFF753FFFFF719FFDB20FFF7E6FECF
:104BD000FFF74CFF0020FFF78FFEFFF72BFFFFF7DB
:104BE0000DFFDA20FFF7DAFEFFF740FFA520FFF701
:104BF000D5FEFFF73BFF1920FFF7D0FEFFF736FF8A
:104C0000FFF718FFFFF7FAFEDA20FFF7C7FEFFF7FE
:104C10002DFF3020FFF7C2FEFFF728FF0A20FFF725
:104C2000BDFEFFF723FFFFF705FF10BD00BFFEE746
:104C3000704700002DE9F0410446002500270F26AB
:104C4000E07810B1E078012800D103E054211E483B
:104C500000F064FF1D48006800F4E060B0F5407F9C
:104C600002D21B4819490860E07800B31748006871
:104C700000F4E060C0F5E060050AC5F10407EE400D
:104C8000607800FA07F5A078304005432D011148FF
:104C900022788554207800F01F0101208840217877
:104CA0004911890001F1E021C1F8000109E02078F3
:104CB00000F01F010120884007492278521141F875
:104CC0002200BDE8F08100000C6B00000CED00E05C
:104CD0000003FA0500E400E080E100E070B504465E
:104CE0000025B4F5E06F0BD0B4F5C06F08D0B4F573
:104CF000A06F05D0B4F5806F02D0B4F5407F00D12D
:104D000003E08921074800F009FF074805684FF6CE
:104D1000FF000540054944EA0100054302480560DB
:104D200070BD00000C6B00000CED00E00000FA0507
:104D30007047000070B504460D4640F2F710204061
:104D400028B140F2F71024EA000000B903E09A21EC
:104D5000114800F0E3FE012D00D005B903E09B21CE
:104D60000D4800F0DBFE43F2CC300C490880012DE9
:104D700007D10A481C380068204308491C390860DC
:104D800006E006481C380068A04304491C39086046
:104D900000200249088070BD906900003C3C04403E
:104DA00070B504460D46A0B218B1200C000400B93D
:104DB00003E0F621114800F0B1FE012D00D005B945
:104DC00003E0F7210D4800F0A9FE43F2CC300C4976
:104DD0000880012D07D10A4814380068204308498B
:104DE0001439086006E0064814380068A0430449F6
:104DF0001439086000200249088070BD90690000E5
:104E00003C3C044070B504460D46C4F30E0018B196
:104E1000E00BC00300B903E0C721124800F07EFE9A
:104E2000012D00D005B903E0C8210E4800F076FE40
:104E300043F2CC300C490880012D07D10A481838BC
:104E40000068204308491839086006E00648183809
:104E50000068A0430449183908600020024908800E
:104E600070BD0000906900003C3C04402DE9F04119
:104E70000023002400250026002700220021DFF85F
:104E800080C1DCF800C0CCF3C203DFF874C10CF1C0
:104E9000040CDCF800C00CF00702052B4BD2DFE855
:104EA00003F0030542454700564944E0DFF850C18E
:104EB0000CF1040CDCF800C0CCF3C047DFF840C1B3
:104EC0000CF1040CDCF800C0CCF3453C0CF10F05F0
:104ED000DFF82CC10CF1040CDCF800C0CCF3822C00
:104EE0000CF10104DFF818C10CF1040CDCF800C06F
:104EF000CCF3015C0CF1010657B1DFF80CC1BCFB2F
:104F0000F6FC0CFB05FCBCFBF4FC4FEA5C0109E081
:104F1000DFF8F0C0BCFBF6FC0CFB05FCBCFBF4FCB2
:104F20004FEA5C0107E04FF4004104E0364902E03B
:104F30004FF4FA3100BF00BF0160062A1FD2DFE83C
:104F400002F003050A0F141941601DE04FEA510CED
:104F5000C0F804C018E04FEA910CC0F804C013E098
:104F60004FEAD10CC0F804C00EE04FEA111CC0F8A3
:104F700004C009E04FEA511CC0F804C004E04FEA45
:104F8000511CC0F804C000BF00BFDFF8748008F1F6
:104F90000408D0F804C0D8F80080C8F3C208B8F1FB
:104FA000040F02DD4FF0040807E0DFF8548008F139
:104FB0000408D8F80080C8F3C2082CFA08FCC0F82E
:104FC00008C0DFF83C8008F10408D0F804C0D8F825
:104FD0000080C8F38218B8F1040F02DD4FF0040816
:104FE00007E0DFF81C8008F10408D8F80080C8F357
:104FF00082182CFA08FCC0F80CC0BDE8F081000053
:10500000003C044000366E0100127A007047000038
:105010001CB501210420FFF78DFE13200090002015
:105020008DF8040001208DF8070069460448FCF75C
:1050300043FA012213210248FCF7FCFA1CBD0000D0
:10504000800A044010B504460CB1012C00D103E0E5
:105050008D21094800F062FD34B10848006840F431
:1050600000600649086005E00448006820F400601C
:105070000249086010BD0000DC69000000380440EF
:105080001CB501210420FFF755FE4FF4007000907D
:1050900001208DF8040000208DF805008DF8060031
:1050A0008DF8070069460B48FCF706FA0122510209
:1050B0000848FCF7BFFA4FF400710648FCF7F8FB0C
:1050C000642000F051FD4FF400710248FCF7C4FB6E
:1050D0001CBD0000800A044010B500210268002AAF
:1050E00003DA01210268524202600A23026892FB3D
:1050F000F3F403FB1422052A08DA026892FBF3F4A6
:1051000003FB142203689A1A026008E00A2302686B
:1051100092FBF3F403FB1423521DD21A02600129FF
:1051200002D102685242026010BD00000CB500209E
:10513000019000903C483D49086043F2CC303C4926
:1051400008803B481C38006820F0100010303849B7
:105150001C3908603448801E3649086034483C38A1
:10516000006820F4005000F5005031493C390860D7
:1051700000BF2F483C380068C0F380300028F8D0CA
:105180002B483838006820F4002029493839086055
:105190000846006820F4401000F50010086008463A
:1051A000006820F4FC2000F52830086008460068FC
:1051B00020F4E05000F580600860081F006840F0AF
:1051C0008000091F086000BF19483C38006800F4DF
:1051D00080700028F8D016483C38006820F007009E
:1051E000401C13493C39086000BF11483C38006836
:1051F000C0F3C2000128F8D10D483838006820F00B
:1052000007000B49383908600846006820F038006C
:10521000083008600846006820F4E07040300860FC
:105220000020034908800CBD0200A55A0048044034
:105230003C3C044008380440014601228A40074BA8
:105240001B681A400AB9FF2006E0054A52F82120DF
:105250000AB9012000E00020704700006C00002027
:105260005C01002001228240044B1B681A43034B5F
:105270001A60034A42F82010704700006C000020BA
:105280005C010020704710B5FFF750FF10BD000013
:1052900000B585B001A800F019F901210846FFF713
:1052A0007FFD40F267100190632002900020ADF86E
:1052B0000C00ADF80E00ADF8100001A90D4800F08B
:1052C00089F801210B4800F053F820208DF80000E8
:1052D00003208DF8010000208DF8020001208DF8D8
:1052E00003006846FFF7A6FC0121024800F0BCF865
:1052F00005B000BD0004004010B50A4800F016F8E3
:1053000000240CE0084850F8240030B1064850F85A
:105310002400401E044941F82400601CC4B2032C40
:10532000F0DB10BD000400405C01002010B5044615
:105330000A48844208D00A48844205D00948844279
:1053400002D00948844200D104E040F23D110748F0
:1053500000F0E4FB4FF48030206110BD00040040F9
:1053600000080040000C004000100040746A00007B
:1053700070B504460D461248844208D01148844254
:1053800005D01148844202D01048844200D103E085
:1053900091210F4800F0C2FB0DB1012D00D103E0B7
:1053A00092210B4800F0BAFB25B1206840F0400084
:1053B000206003E0206820F04000206070BD000005
:1053C0000004004000080040000C004000100040B5
:1053D000746A000070B505460C461E48854208D028
:1053E0001D48854205D01D48854202D01C48854293
:1053F00000D103E07A211B4800F090FB208940B1E6
:105400002089102805D02089202802D02089302822
:1054100000D103E07B21134800F080FB608910B1CC
:105420006089082800D103E07C210E4800F076FB5B
:105430002068E8606068A860286820F487602860B9
:10544000208961890843A1890843296808432860A5
:1054500070BD00000004004000080040000C004047
:1054600000100040746A000070B504460D461248F2
:10547000844208D01148844205D01148844202D0A9
:105480001048844200D103E0AA210F4800F046FBF7
:10549000012D00D005B903E0AB210B4800F03EFB25
:1054A00025B1206840F00100206003E0206820F072
:1054B0000100206070BD00000004004000080040B2
:1054C000000C004000100040746A000000210160E0
:1054D00041600181418181817047000000B589B040
:1054E00001210420FFF726FC2020019001208DF8E7
:1054F000080000208DF809008DF80A0001208DF8C1
:105500000B0001A91E48FBF7D7FF402001900020A7
:105510008DF8080001A91A48FBF7CEFF02222021CE
:105520001748FCF787F8022240211548FCF782F85B
:1055300001210420FFF766FC4FF4005003904FF464
:10554000165004900020059001200690002007903E
:105550004FF4C020089003A90A4800F0B7F80122D0
:105560000821084800F06AF81B2001218140420907
:10557000920002F1E022C2F8001100BF09B000BDA4
:10558000800A04400008024010B50121064800F0DE
:105590000FF8012807D1044800F058FAC4B2214698
:1055A0000248FBF7ABFD10BD00080240F2000020EE
:1055B00070B505460C461A4885420ED019488542FA
:1055C0000BD01948854208D01848854205D01848A4
:1055D000854202D01748854200D103E0EE211648EB
:1055E00000F09CFA012C0DD0022C0BD0042C09D019
:1055F000082C07D0102C05D0202C03D0402C01D033
:10560000802C00D103E0EF210B4800F087FA2868D6
:10561000204008B1012600E00026304670BD0000A1
:10562000000002400004024000080240000C02405A
:105630000010024000140240286A000070B50446C1
:105640000D4616461A4884420ED01A4884420BD0A2
:105650001948844208D01948844205D01848844229
:1056600002D01848844200D104E040F225111648C7
:1056700000F054FA4FF68770284008B905B104E0ED
:105680004FF49371104800F049FA0EB1012E00D189
:1056900004E040F227110C4800F040FA1EB1A06966
:1056A0002843A06102E0A069A843A06170BD00008A
:1056B000000002400004024000080240000C0240CA
:1056C0000010024000140240286A00002DE9FF414A
:1056D00004460D4600270026BE4884420ED0BE4830
:1056E00084420BD0BD48844208D0BD48844205D0D6
:1056F000BC48844202D0BC48844200D103E063210C
:10570000BA4800F00BFA286858B12868B0F5005F75
:1057100007D02868B0F5804F03D02868B0F5C04F97
:1057200000D103E06421B14800F0F8F9A06920F449
:10573000C040A061A06929680843A0612868B0F54D
:10574000005F03D02868B0F5C04F12D16846FFF75C
:105750008DFB039800096968B0FBF1F0461E0398C1
:105760006968B0FBF1F1701C102202FB101706EB08
:1057700007462868B0BB6868B0F1004F03D068687E
:10578000B0F1804F00D103E07521984800F0C6F9D0
:10579000E86800B903E07621944800F0BFF9A868F2
:1057A00000B903E07721914800F0B8F9286900B901
:1057B00003E078218D4800F0B1F9A06920F4805011
:1057C000A061A0694FF48052696802EAD1410843A0
:1057D000A061A06920F44060A061A0692969084324
:1057E000A061ECE0FFE72868B0F5005F44D168688D
:1057F000B0F1004F0CD06868B0F1804F08D06868F5
:10580000B0F1005F04D06868B0F1805F00D003E0C1
:105810008421764800F082F9E868012802D0E8681F
:10582000022800D103E08521704800F077F9A868CC
:1058300000B903E086216D4800F070F9286900B9CD
:1058400003E08721694800F069F96661A06940F0CA
:105850000200A061A06920F00100A061A069E968D0
:10586000491E0843A061A06920F44060A061A069BE
:1058700029690843A061A2E02868B0F5804F4ED1A5
:105880006868B0F1005F03D06868B0F1805F00D154
:1058900003E09521554800F041F9E868012802D05D
:1058A000E868022800D103E09621504800F036F95C
:1058B000A86818B1A868B0F5007F00D103E097216F
:1058C0004A4800F02BF9286938B12869B0F5406FD3
:1058D00003D02869B0F5006F00D103E09821434858
:1058E00000F01CF9A06920F00400A061A069042266
:1058F000696802EAD1610843A061A06920F0010053
:10590000A061A069E968491E0843A061A06920F46C
:105910004060A061A06929690843A0614FE0686800
:10592000B0F1004F0CD06868B0F1804F08D06868C3
:10593000B0F1005F04D06868B0F1805F00D003E090
:10594000A6212A4800F0EAF8E868012802D0E868B1
:10595000022800D103E0A721244800F0DFF8A8685E
:1059600018B1A868B0F5007F00D103E0A8211F4856
:1059700000F0D4F8286938B12869B0F5406F03D039
:105980002869B0F5006F00D103E0A921174800F0A5
:10599000C5F86661A06940F00200A061A06920F02E
:1059A0000100A061A069E968491E0843A061A069DF
:1059B00020F44060A061A06929690843A061A06942
:1059C00020F4C020A061A06969690843A061BDE816
:1059D000FF81000000000240000402400008024075
:1059E000000C02400010024000140240286A00002F
:1059F0002DE9F04782460E46174698464FF00009BB
:105A00000024002500BF0DE05046FBF7E9F8705573
:105A1000681C85B24FF00009BD4201D1012000E0B1
:105A2000002004465046FBF76FFF002801DD002CE4
:105A3000EAD024B9012000F097F809F101090CB966
:105A4000C145E0D32046BDE8F087000070B50446AC
:105A500000250026134884420ED0134884420BD000
:105A60001248844208D01248844205D0114884422A
:105A700002D01148844200D104E040F26D110F4879
:105A800000F04CF8A06900F4C04616B1B6F5005F0E
:105A900001D1257B04E0A06900F48075207B0543DB
:105AA000284670BD00000240000402400008024089
:105AB000000C02400010024000140240286A00005E
:105AC00070B504460D460D4884420ED00C48844201
:105AD0000BD00C48844208D00B48844205D00B48B8
